:020000020000FC
:100000000AEF04B90FEF0AB905E005B900E065E0B1
:1000100070E020E00E949A0023B12570213051F059
:100020002430D1F703950E948E00202F0E94A80053
:100030000C940C00202F0E94A8000E948E000E94A9
:10004000A5000E948E000E94A8000E948E000E94BF
:10005000A5000E948E000E94A8000E948E000E94AF
:10006000A5000E948E000E94A80030E00E949A0025
:1000700023B12570213051F02430D1F733950E94FF
:100080008E00232F0E94A8000C943800232F0E947A
:100090008E000E94A5000E948E000E94A8000E946F
:1000A0008E000E94A5000E948E000E94A8000E945F
:1000B0008E000E94A5000E948E000E94A800039F4F
:1000C000402D502D5695569556955695242F0E94A5
:1000D000A8000E9482000E94A5000E948200252F95
:1000E0000E94A8000E9482000E94A5000E94820037
:1000F0000E94A1000E9482000E94A5000E9482002E
:100100000C946600F1EECC9FE0E0CC9FD0E0CC9F59
:10011000D395E9F7E395C9F7F395A9F7F3EFCC9FEA
:10012000E0E0CC9FD0E0CC9FD395E9F7E395C9F709
:10013000F395A9F77BB965B95F9A299A5A9A5D9A9E
:1001400008957BB965B95D9A08957BB965B908953D
:100150002F70203039F0213071F0223089F02330B7
:10016000B9F01EC07BB965B95F9A299A5C9A5B9A0F
:100170005A9A5E9A08957BB965B9299A5C9A08954E
:100180007BB965B95F9A299A5D9A5A9A5B9A0895E4
:100190007BB965B95F9A299A5D9A5C9A5B9A0895D2
:1001A000243049F0253071F02630A1F02730D9F005
:1001B0002830F9F026C07BB965B95E9A5D9A299A14
:1001C0005C9A08957BB965B95F9A5E9A5D9A5C9A6C
:1001D0005B9A08957BB965B95F9A5E9A5D9A5A9A5F
:1001E0005C9A5B9A08957BB965B95F9A299A5C9A83
:1001F00008955F9A299A5C9A5B9A5A9A5E9A5D9AD8
:100200000895293061F02A3099F02B30D1F02C304C
:1002100001F12D3029F12E3059F12F3089F17BB9C0
:1002200065B95B9A5C9A5D9A5E9A5F9A299A08957D
:100230007BB965B95A9A5C9A5D9A5E9A5F9A299AD7
:1002400008957BB965B95A9A5B9A5C9A5D9A5E9AF1
:1002500008957BB965B95A9A5B9A5E9A5F9A089538
:100260007BB965B95A9A5B9A5C9A5D9A299A089506
:100270007BB965B95A9A5B9A5D9A5E9A5F9A0895BE
:100280007BB965B95A9A5D9A5E9A5F9A21E00895A2
:00000001FF
