:020000020000FC
:100000000FEF04B900E005B90FEF0AB900E00BB932
:1000100010E013951F7040EE30E020E0559F2395CF
:10002000E9F73395D1F74395B9F700E00BB905B976
:10003000103009F041F45F9A299A5C9A5B9A5A9AB7
:100040005E9A0C940900113009F021F4299A5C9A07
:100050000C940900123009F039F45F9A299A5D9ADC
:100060005A9A5B9A0C940900133009F039F45F9A9C
:10007000299A5D9A5C9A5B9A0C940900143009F0F5
:1000800031F45E9A5D9A299A5C9A0C9409001530B5
:1000900009F039F45F9A5E9A5D9A5C9A5B9A0C94C7
:1000A0000900163009F041F45F9A5E9A5D9A5A9AF7
:1000B0005C9A5B9A0C940900173009F029F45F9A56
:1000C000299A5C9A0C940900183009F049F45F9A57
:1000D000299A5C9A5B9A5A9A5E9A5D9A0C940900E6
:1000E000193009F041F45B9A5C9A5D9A5E9A5F9AC6
:1000F000299A0C9409001A3009F041F45A9A5C9A32
:100100005D9A5E9A5F9A299A0C9409001B3009F057
:1001100039F45A9A5B9A5C9A5D9A5E9A0C9409003B
:100120001C3009F031F45A9A5B9A5E9A5F9A0C94EB
:1001300009001D3009F039F45A9A5B9A5C9A5D9A6D
:10014000299A0C9409001E3009F039F45A9A5B9AE6
:100150005D9A5E9A5F9A0C9409001F3009F031F4A1
:100160005A9A5D9A5E9A5F9A0C9409005D9A0C9473
:0601700009000C940900D7
:00000001FF
