:020000020000FC
:100000000FEF0AB90EEF04B900E005B90BB910E023
:1000100020E050E060E070E003B10170003011F0CA
:100020000C940C001F7040EE30E020E0559F2395AB
:10003000E9F73395D1F74395B9F700E00BB905B966
:10004000103009F049F413955F9A299A5C9A5B9AEB
:100050005A9A5E9A0C941200113009F029F4139503
:10006000299A5C9A0C941200123009F041F413950D
:100070005F9A299A5D9A5A9A5B9A0C9412001330EF
:1000800009F041F413955F9A299A5D9A5C9A5B9AFC
:100090000C941200143009F039F413955E9A5D9AAD
:1000A000299A5C9A0C941200153009F041F41395CA
:1000B0005F9A5E9A5D9A5C9A5B9A0C941200163075
:1000C00009F049F413955F9A5E9A5D9A5A9A5C9A80
:1000D0005B9A0C941200173009F031F413955F9A73
:1000E000299A5C9A0C941200183009F051F4139577
:1000F0005F9A299A5C9A5B9A5A9A5E9A5D9A0C94D6
:100100001200193009F049F413955B9A5C9A5D9AD4
:100110005E9A5F9A299A0C9412001A3009F049F4F9
:1001200013955A9A5C9A5D9A5E9A5F9A299A0C94F2
:1001300012001B3009F041F413955A9A5B9A5C9AAD
:100140005D9A5E9A0C9412001C3009F039F41395F4
:100150005A9A5B9A5E9A5F9A0C9412001D3009F0CD
:1001600041F413955A9A5B9A5C9A5D9A299A0C9479
:1001700012001E3009F041F413955A9A5B9A5D9A69
:100180005E9A5F9A0C9412001F3009F039F41395AF
:100190005A9A5D9A5E9A5F9A0C940C005D9A0C9440
:0601A00012000C94120095
:00000001FF
